:100000000C9493000C94C5050C94DC050C94A5008D
:100010000C94A5000C94A5000C94A5000C94A500CC
:100020000C94A5000C94A5000C94A5000C949905C3
:100030000C94A5000C94A5000C9482050C94A500CA
:100040000C94A5000C94A5000C94A5000C94A5009C
:100050000C94A5000C94B0050C94A5000C94A5007C
:100060000C94A5000C94A5001C023102310231024F
:1000700031023102310231023102310231023102E8
:1000800031023102310231023102310231023102D8
:10009000FE0014012A014001560131026C01820167
:1000A000310298013102AE0131023102C401DA019C
:1000B00031023102F00106023C02520268027E0265
:1000C0009402AA02C002D602EC0202030800000059
:1000D000BE922449123EABAAAA2ABECDCCCC4C3E3D
:1000E00000000080BEABAAAAAA3E00000000BF002C
:1000F0000000803F0000000000084178D3BB438728
:10010000D1133D190E3CC3BD4282AD2B3E68EC823B
:1001100076BED98FE1A93E4C80EFFFBE01C4FF7FC0
:100120003F000000000011241FBECFEFD8E0DEBF6B
:10013000CDBF21E0A0E0B1E001C01D92A331B20724
:10014000E1F70E9451040C9417090C940000ECE7AD
:10015000F0E080818F7780838081806480838081DC
:10016000806280838081877F808380818B7F808392
:1001700080818D7F808380818E7F8083EAE7F0E0BD
:1001800080818062808380818860808380818460B8
:1001900080838081826080838081816080830895F4
:1001A000EAE7F0E0808180688083808180648083DA
:1001B00008958AB1806F8AB984B1816384B98BB1A3
:1001C0008F708BB985B18E7C85B9089587B18C60AD
:1001D00087B987B1806387B988B18C6088B988B1E5
:1001E000806388B9089590E0FC01BD97E832F1057D
:1001F00008F037C1EC5CFF4F0C94EF0885B18062CA
:1002000085B985B1806185B985B1816085B98BB1CA
:100210008F778BB98BB180648BB98BB180628BB9CE
:100220008BB180618BB9089585B18F7D85B985B11A
:100230008F7E85B985B1816085B98BB180688BB9B6
:100240008BB180648BB98BB180628BB98BB18061CB
:100250008BB9089585B1806285B985B18F7E85B9E6
:1002600085B18E7F85B98BB18F778BB98BB1806467
:100270008BB98BB180628BB98BB18F7E8BB90895AE
:1002800085B18F7D85B985B1806185B985B1816082
:1002900085B98BB180688BB98BB180648BB98BB118
:1002A0008F7D8BB98BB180618BB9089585B18062E8
:1002B00085B985B18F7E85B985B18E7F85B98BB1C2
:1002C00080688BB98BB180648BB98BB180628BB93C
:1002D0008BB180618BB9089585B1806285B985B194
:1002E000806185B985B1816085B98BB180688BB932
:1002F0008BB18F7B8BB98BB180628BB98BB18061F5
:100300008BB9089585B18F7D85B985B1806185B937
:1003100085B1816085B98BB18F778BB98BB18064E2
:100320008BB98BB180628BB98BB180618BB9089529
:1003300085B18F7D85B985B1806185B985B18160D1
:1003400085B98BB180688BB98BB180648BB98BB167
:100350008F7D8BB98BB18F7E8BB9089585B18F7DE1
:1003600085B985B18F7E85B985B18E7F85B98BB111
:1003700080688BB98BB180648BB98BB180628BB98B
:100380008BB18F7E8BB9089585B1806285B985B1B7
:10039000806185B985B1816085B98BB180688BB981
:1003A0008BB180648BB98BB180628BB98BB18F7E3E
:1003B0008BB9089585B1806285B985B1806185B9B1
:1003C00085B18E7F85B98BB18F778BB98BB1806406
:1003D0008BB98BB180628BB98BB180618BB9089579
:1003E00085B1806285B985B18F7E85B985B181601F
:1003F00085B98BB180688BB98BB18F7B8BB98BB191
:1004000080628BB98BB180618BB9089585B18F7D86
:1004100085B985B18F7E85B985B18E7F85B98BB160
:1004200080688BB98BB180648BB98BB180628BB9DA
:100430008BB180618BB9089585B18F7D85B985B108
:100440008F7E85B985B18E7F85B98BB18F778BB95A
:100450008BB18F7B8BB98BB18F7D8BB98BB18F7E3D
:100460008BB9089590E08A30910508F0E0C0FC0156
:10047000E45AFF4F0C94EF0885B1806285B985B1CD
:10048000806185B985B1816085B98BB180688BB990
:100490008BB180648BB98BB180628BB98BB18F7E4D
:1004A0008BB9089585B18F7D85B985B1806185B996
:1004B00085B1816085B98BB18F778BB98BB18F7B1B
:1004C0008BB98BB18F7D8BB98BB18F7E8BB9089532
:1004D00085B1806285B985B1806185B985B18E7F2E
:1004E00085B98BB180688BB98BB180648BB98BB1C6
:1004F0008F7D8BB98BB180618BB9089585B1806296
:1005000085B985B1806185B985B1816085B98BB1C7
:1005100080688BB98BB18F7B8BB98BB18F7D8BB999
:100520008BB180618BB9089585B18F7D85B985B117
:10053000806185B985B1816085B98BB18F778BB9C1
:100540008BB18F7B8BB98BB180628BB98BB18061A2
:100550008BB9089585B1806285B985B18F7E85B9E3
:1005600085B1816085B98BB180688BB98BB18F7B88
:100570008BB98BB180628BB98BB180618BB90895D7
:1005800085B1806285B985B18F7E85B985B181607D
:1005900085B98BB180688BB98BB180648BB98BB115
:1005A00080628BB98BB180618BB9089585B180620F
:1005B00085B985B1806185B985B1816085B98BB117
:1005C0008F778BB98BB18F7B8BB98BB18F7D8BB9CB
:1005D0008BB18F7E8BB9089585B1806285B985B165
:1005E000806185B985B1816085B98BB180688BB92F
:1005F0008BB180648BB98BB180628BB98BB1806118
:100600008BB9089585B1806285B985B1806185B95E
:1006100085B1816085B98BB180688BB98BB18F7BD7
:100620008BB98BB180628BB98BB180618BB9089526
:10063000E9E6F0E08081836080838DB381608DBBCB
:100640008081846080838081886080838DB38260B4
:100650008DBB089584B1897F84B985B1897F85B9BF
:100660008AB1837F8AB98BB18C608BB984B1886081
:1006700084B985B1877F85B90895CF92DF92EF92D3
:10068000FF926B017C019B01AC0160E070E080EAAD
:1006900090E40E943B0620E030E44CE156E40E94E6
:1006A0002E08A70196010E94A8060E941A07FF9033
:1006B000EF90DF90CF9008958F929F92AF92BF926C
:1006C000CF92DF92EF92FF920E9450070E94E607BE
:1006D0006B017C012EE033E445E759E30E942E08CC
:1006E00023E936E244E95AE30E943C064B015C01EF
:1006F0002CED34E54EEB53E3C701B6010E942E0802
:100700009B01AC01C701B6010E942E089B01AC0100
:10071000C701B6010E942E089B01AC01C501B401BE
:100720000E943C069B01AC0160E070E080E89FE322
:100730000E94A80620E030E848E853E40E943B0607
:10074000FF90EF90DF90CF90BF90AF909F908F90F1
:1007500008950F931F9360910C0170910D01072E66
:10076000000C880B990B0E94520721EA30EA40EAFC
:100770005CE30E942E080E943D030E945C030E94DD
:100780001A07209106013091070140910401509110
:100790000501241B350B8901330F220B330B600F2E
:1007A000711F821F931F609308017093090180934A
:1007B0000A0190930B011F910F91089590911001E0
:1007C000913059F028F0923071F0933091F0089503
:1007D0009CE198B90E94F30008958CE288B9862FB5
:1007E0000E94F300089584E388B9842F0E94F300E7
:1007F000089588E388B9822F0E94F300089520911C
:1008000010012130A9F028F0223039F12330D1F144
:10081000089528EE33E040E050E00E94D008209395
:1008200012018CE188B9809112010E943202089570
:1008300028EE33E040E050E00E94D00824E630E0AB
:1008400040E050E00E94D008209312018CE288B969
:10085000809112010E943202089524E630E040E0C7
:1008600050E00E94D0082AE030E040E050E00E94D2
:10087000D0082093120184E388B9809112010E946C
:10088000320208952AE030E040E050E00E94D008B3
:100890006093120188E388B9809112010E943202AC
:1008A0000895F8940E942A030E94D9000E94E6004D
:1008B0000E94F3050E940F060E94A7000E941803E1
:1008C00078940E9404060E942B060E94D00080911A
:1008D0001101813011F138F0823009F44EC08330BB
:1008E00009F4E7C0F4CF85B1877F85B921E44CE4F2
:1008F0006FE488E40E94DE0380910E0190910F0165
:10090000049740F010920F0110920E0181E0809345
:100910001101DDCF10921101DACF85B1877F85B942
:10092000199B10920101199B13C080910101811143
:100930000FC081E08093010180910801909109012D
:10094000909303018093020182E080931101BFCF55
:100950001A9B03C010921101BACF0E94A9036093A1
:1009600008017093090180930A0190930B010E9482
:10097000FF0381E080931101AACF199B109201011E
:100980001A9B109200010E94A903609308017093C2
:10099000090180930A0190930B012091020130918B
:1009A0000301A9014A5051096A01550FEE08FF08D9
:1009B0006C157D058E059F05A4F0265F3F4F8901CC
:1009C000330F220B330B06171707280739074CF094
:1009D0002DE244E565E483E50E94DE0385B1877F6F
:1009E00085B980910201909103010A96092E000CAD
:1009F000AA0BBB0B409108015091090160910A01BB
:100A000070910B0184179507A607B707B4F42DE280
:100A100044E56FE488E40E94DE0385B1886085B90F
:100A200080910E0190910F01029738F010920F0102
:100A300010920E0185B1877F85B980910201909156
:100A400003010A97092E000CAA0BBB0B4091080169
:100A50005091090160910A0170910B0148175907E3
:100A60006A077B074CF424E44CE46FE483E40E94BF
:100A7000DE0385B1877F85B91A9B0AC0809100018A
:100A8000811106C081E080930001109211011FCFF7
:100A9000199B0BC080910101811107C081E08093F7
:100AA000010183E08093110112CF82E08093110154
:100AB0000ECF199B109201011A9B1092000120E5A4
:100AC0004FE464E583E50E94DE031A9B0AC080912F
:100AD0000001811106C081E0809300011092110194
:100AE000F6CE199B0BC080910101811107C081E0F6
:100AF0008093010182E080931101E9CE83E080932D
:100B00001101E5CE1F920F920FB60F9211248F9311
:100B1000809110018F5F80931001809110018530CA
:100B200010F0109210018F910F900FBE0F901F9038
:100B300018951F920F920FB60F9211248F939F93C7
:100B400080910E0190910F01019690930F01809377
:100B50000E019F918F910F900FBE0F901F901895CF
:100B60001F920F920FB60F9211248F939F93809133
:100B7000790090E090930D0180930C019F918F91EB
:100B80000F900FBE0F901F9018951F920F920FB6E7
:100B90000F9211248F939F938091060190910701EA
:100BA000019690930701809306019F918F910F907A
:100BB0000FBE0F901F9018951F920F920FB60F92B5
:100BC00011248F939F9380910401909105010196C8
:100BD00090930501809304019F918F910F900FBE18
:100BE0000F901F90189584B58E7F84BD84B5826068
:100BF00084BD85B5877F85BD84E187BDEEE6F0E0E5
:100C0000808182608083089516BC85B5816085BD32
:100C100085B58D7F85BD85B5846085BD0895E0E887
:100C2000F0E080818E7F808380818D7F8083E1E80A
:100C3000F0E080818860808380818F7E808387E080
:100C40009DE39093890080938800EFE6F0E0808137
:100C50008260808308951092850010928400E1E8FC
:100C6000F0E080818160808380818D7F80838081BE
:100C70008460808308955058BB27AA270E9453069A
:100C80000C94A4070E94960738F00E949D0720F05C
:100C900039F49F3F19F426F40C9493070EF4E09571
:100CA000E7FB0C948D07E92F0E94B50758F3BA179C
:100CB000620773078407950720F079F4A6F50C9472
:100CC000D7070EF4E0950B2EBA2FA02D0B01B9011A
:100CD00090010C01CA01A0011124FF27591B99F0B2
:100CE000593F50F4503E68F11A16F040A22F232FBE
:100CF000342F4427585FF3CF469537952795A7950E
:100D0000F0405395C9F77EF41F16BA0B620B730BB4
:100D1000840BBAF09150A1F0FF0FBB1F661F771F25
:100D2000881FC2F70EC0BA0F621F731F841F48F4DA
:100D3000879577956795B795F7959E3F08F0B0CF63
:100D40009395880F08F09927EE0F9795879508954A
:100D50000E94BC060C94A4070E949D0758F00E94B4
:100D6000960740F029F45F3F29F00C948D0751114C
:100D70000C94D8070C9493070E94B50768F3992345
:100D8000B1F3552391F3951B550BBB27AA27621787
:100D90007307840738F09F5F5F4F220F331F441F94
:100DA000AA1FA9F335D00E2E3AF0E0E832D09150C8
:100DB0005040E695001CCAF72BD0FE2F29D0660FB5
:100DC000771F881FBB1F261737074807AB07B0E8F8
:100DD00009F0BB0B802DBF01FF2793585F4F3AF0FE
:100DE0009E3F510578F00C948D070C94D8075F3F17
:100DF000E4F3983ED4F3869577956795B795F79584
:100E00009F5FC9F7880F911D9695879597F908956B
:100E1000E1E0660F771F881FBB1F62177307840707
:100E2000BA0720F0621B730B840BBA0BEE1F88F716
:100E3000E09508950E9421076894B1110C94D80799
:100E400008950E94BD0788F09F5798F0B92F992701
:100E5000B751B0F0E1F0660F771F881F991F1AF0A5
:100E6000BA95C9F714C0B13091F00E94D707B1E02C
:100E700008950C94D707672F782F8827B85F39F02B
:100E8000B93FCCF3869577956795B395D9F73EF43E
:100E900090958095709561957F4F8F4F9F4F0895E6
:100EA000E89409C097FB3EF4909580957095619504
:100EB0007F4F8F4F9F4F9923A9F0F92F96E9BB27BA
:100EC0009395F695879577956795B795F111F8CF36
:100ED000FAF4BB0F11F460FF1BC06F5F7F4F8F4FA1
:100EE0009F4F16C0882311F096E911C0772321F097
:100EF0009EE8872F762F05C0662371F096E8862F2F
:100F000070E060E02AF09A95660F771F881FDAF785
:100F1000880F9695879597F9089597F99F6780E8C8
:100F200070E060E008959FEF80EC089500240A943B
:100F30001616170618060906089500240A941216B4
:100F40001306140605060895092E0394000C11F4E7
:100F5000882352F0BB0F40F4BF2B11F460FF04C094
:100F60006F5F7F4F8F4F9F4F089557FD9058440FED
:100F7000551F59F05F3F71F04795880F97FB991FF8
:100F800061F09F3F79F087950895121613061406B5
:100F9000551FF2CF4695F1DF08C016161706180642
:100FA000991FF1CF86957105610508940895E8941D
:100FB000BB2766277727CB0197F9089516F00C9485
:100FC0009B080C94930768940C948D070E94BD07AE
:100FD000A8F39923C1F3AEF3DF93CF931F930F933D
:100FE000FF92C92FDD2788232AF02197660F771FEC
:100FF000881FDAF720E030E040E85FEB9FE38839B4
:1010000020F0803E38F021968F770E943C06ECEC71
:10101000F0E004C00E943C06E9EFF0E00E94A9085D
:101020008B01BE01EC01FB2E6F5771097595771F7F
:10103000880B990B0E94520728E132E741E35FE3F6
:101040000E944108AF2D9801AE01FF900F911F91B2
:10105000CF91DF910E9453060C94A4070E9441088F
:101060000C94A4070E94960738F00E949D0720F078
:10107000952311F00C948D070C94930711240C9474
:10108000D8070E94B50770F3959FC1F3950F50E004
:10109000551F629FF001729FBB27F00DB11D639F2A
:1010A000AA27F00DB11DAA1F649F6627B00DA11DD0
:1010B000661F829F2227B00DA11D621F739FB00D76
:1010C000A11D621F839FA00D611D221F749F3327E6
:1010D000A00D611D231F849F600D211D822F762F7F
:1010E0006A2F11249F5750409AF0F1F088234AF05C
:1010F000EE0FFF1FBB1F661F771F881F91505040C8
:10110000A9F79E3F510580F00C948D070C94D807E9
:101110005F3FE4F3983ED4F3869577956795B7954E
:10112000F795E7959F5FC1F7FE2B880F911D969568
:10113000879597F908959F3F31F0915020F4879556
:1011400077956795B795880F911D9695879597F92F
:101150000895DF93CF931F930F93FF92EF92DF9247
:101160007B018C01689406C0DA2EEF010E944108D1
:10117000FE01E894A5912591359145915591A6F3ED
:10118000EF010E945306FE019701A801DA9469F766
:10119000DF90EF90FF900F911F91CF91DF91089515
:1011A000052E97FB1EF400940E94E70857FD07D018
:1011B0000E94F50807FC03D04EF40C94E708509504
:1011C0004095309521953F4F4F4F5F4F0895909533
:1011D0008095709561957F4F8F4F9F4F0895EE0FCB
:1011E000FF1F0590F491E02D0994A1E21A2EAA1B8D
:1011F000BB1BFD010DC0AA1FBB1FEE1FFF1FA217C7
:10120000B307E407F50720F0A21BB30BE40BF50BC3
:10121000661F771F881F991F1A9469F7609570954C
:10122000809590959B01AC01BD01CF010895F89484
:02123000FFCFEE
:00000001FF
